{
  "_format": "hh-sol-artifact-1",
  "contractName": "KondwaNFT",
  "sourceName": "contracts/KondwaNFT.sol",
  "abi": [
    {
      "inputs": [],
      "stateMutability": "payable",
      "type": "constructor"
    },
    {
      "anonymous": false,
      "inputs": [
        {
          "indexed": true,
          "internalType": "address",
          "name": "owner",
          "type": "address"
        },
        {
          "indexed": true,
          "internalType": "address",
          "name": "approved",
          "type": "address"
        },
        {
          "indexed": true,
          "internalType": "uint256",
          "name": "tokenId",
          "type": "uint256"
        }
      ],
      "name": "Approval",
      "type": "event"
    },
    {
      "anonymous": false,
      "inputs": [
        {
          "indexed": true,
          "internalType": "address",
          "name": "owner",
          "type": "address"
        },
        {
          "indexed": true,
          "internalType": "address",
          "name": "operator",
          "type": "address"
        },
        {
          "indexed": false,
          "internalType": "bool",
          "name": "approved",
          "type": "bool"
        }
      ],
      "name": "ApprovalForAll",
      "type": "event"
    },
    {
      "anonymous": false,
      "inputs": [
        {
          "indexed": true,
          "internalType": "address",
          "name": "previousOwner",
          "type": "address"
        },
        {
          "indexed": true,
          "internalType": "address",
          "name": "newOwner",
          "type": "address"
        }
      ],
      "name": "OwnershipTransferred",
      "type": "event"
    },
    {
      "anonymous": false,
      "inputs": [
        {
          "indexed": true,
          "internalType": "address",
          "name": "from",
          "type": "address"
        },
        {
          "indexed": true,
          "internalType": "address",
          "name": "to",
          "type": "address"
        },
        {
          "indexed": true,
          "internalType": "uint256",
          "name": "tokenId",
          "type": "uint256"
        }
      ],
      "name": "Transfer",
      "type": "event"
    },
    {
      "inputs": [
        {
          "internalType": "address",
          "name": "to",
          "type": "address"
        },
        {
          "internalType": "uint256",
          "name": "tokenId",
          "type": "uint256"
        }
      ],
      "name": "approve",
      "outputs": [],
      "stateMutability": "nonpayable",
      "type": "function"
    },
    {
      "inputs": [
        {
          "internalType": "address",
          "name": "owner",
          "type": "address"
        }
      ],
      "name": "balanceOf",
      "outputs": [
        {
          "internalType": "uint256",
          "name": "",
          "type": "uint256"
        }
      ],
      "stateMutability": "view",
      "type": "function"
    },
    {
      "inputs": [
        {
          "internalType": "uint256",
          "name": "tokenId",
          "type": "uint256"
        }
      ],
      "name": "getApproved",
      "outputs": [
        {
          "internalType": "address",
          "name": "",
          "type": "address"
        }
      ],
      "stateMutability": "view",
      "type": "function"
    },
    {
      "inputs": [
        {
          "internalType": "address",
          "name": "owner",
          "type": "address"
        },
        {
          "internalType": "address",
          "name": "operator",
          "type": "address"
        }
      ],
      "name": "isApprovedForAll",
      "outputs": [
        {
          "internalType": "bool",
          "name": "",
          "type": "bool"
        }
      ],
      "stateMutability": "view",
      "type": "function"
    },
    {
      "inputs": [],
      "name": "isPublicMintEnabled",
      "outputs": [
        {
          "internalType": "bool",
          "name": "",
          "type": "bool"
        }
      ],
      "stateMutability": "view",
      "type": "function"
    },
    {
      "inputs": [],
      "name": "maxPerWallet",
      "outputs": [
        {
          "internalType": "uint256",
          "name": "",
          "type": "uint256"
        }
      ],
      "stateMutability": "view",
      "type": "function"
    },
    {
      "inputs": [],
      "name": "maxSupply",
      "outputs": [
        {
          "internalType": "uint256",
          "name": "",
          "type": "uint256"
        }
      ],
      "stateMutability": "view",
      "type": "function"
    },
    {
      "inputs": [
        {
          "internalType": "uint256",
          "name": "_quantity",
          "type": "uint256"
        }
      ],
      "name": "mint",
      "outputs": [],
      "stateMutability": "payable",
      "type": "function"
    },
    {
      "inputs": [],
      "name": "mintPrice",
      "outputs": [
        {
          "internalType": "uint256",
          "name": "",
          "type": "uint256"
        }
      ],
      "stateMutability": "view",
      "type": "function"
    },
    {
      "inputs": [],
      "name": "name",
      "outputs": [
        {
          "internalType": "string",
          "name": "",
          "type": "string"
        }
      ],
      "stateMutability": "view",
      "type": "function"
    },
    {
      "inputs": [],
      "name": "owner",
      "outputs": [
        {
          "internalType": "address",
          "name": "",
          "type": "address"
        }
      ],
      "stateMutability": "view",
      "type": "function"
    },
    {
      "inputs": [
        {
          "internalType": "uint256",
          "name": "tokenId",
          "type": "uint256"
        }
      ],
      "name": "ownerOf",
      "outputs": [
        {
          "internalType": "address",
          "name": "",
          "type": "address"
        }
      ],
      "stateMutability": "view",
      "type": "function"
    },
    {
      "inputs": [],
      "name": "renounceOwnership",
      "outputs": [],
      "stateMutability": "nonpayable",
      "type": "function"
    },
    {
      "inputs": [
        {
          "internalType": "address",
          "name": "from",
          "type": "address"
        },
        {
          "internalType": "address",
          "name": "to",
          "type": "address"
        },
        {
          "internalType": "uint256",
          "name": "tokenId",
          "type": "uint256"
        }
      ],
      "name": "safeTransferFrom",
      "outputs": [],
      "stateMutability": "nonpayable",
      "type": "function"
    },
    {
      "inputs": [
        {
          "internalType": "address",
          "name": "from",
          "type": "address"
        },
        {
          "internalType": "address",
          "name": "to",
          "type": "address"
        },
        {
          "internalType": "uint256",
          "name": "tokenId",
          "type": "uint256"
        },
        {
          "internalType": "bytes",
          "name": "_data",
          "type": "bytes"
        }
      ],
      "name": "safeTransferFrom",
      "outputs": [],
      "stateMutability": "nonpayable",
      "type": "function"
    },
    {
      "inputs": [
        {
          "internalType": "address",
          "name": "operator",
          "type": "address"
        },
        {
          "internalType": "bool",
          "name": "approved",
          "type": "bool"
        }
      ],
      "name": "setApprovalForAll",
      "outputs": [],
      "stateMutability": "nonpayable",
      "type": "function"
    },
    {
      "inputs": [
        {
          "internalType": "string",
          "name": "_baseTokenUrl",
          "type": "string"
        }
      ],
      "name": "setBaseTokenUrl",
      "outputs": [],
      "stateMutability": "nonpayable",
      "type": "function"
    },
    {
      "inputs": [
        {
          "internalType": "bool",
          "name": "_isPublicMintEnabled",
          "type": "bool"
        }
      ],
      "name": "setIsPublicMintEnabled",
      "outputs": [],
      "stateMutability": "nonpayable",
      "type": "function"
    },
    {
      "inputs": [
        {
          "internalType": "bytes4",
          "name": "interfaceId",
          "type": "bytes4"
        }
      ],
      "name": "supportsInterface",
      "outputs": [
        {
          "internalType": "bool",
          "name": "",
          "type": "bool"
        }
      ],
      "stateMutability": "view",
      "type": "function"
    },
    {
      "inputs": [],
      "name": "symbol",
      "outputs": [
        {
          "internalType": "string",
          "name": "",
          "type": "string"
        }
      ],
      "stateMutability": "view",
      "type": "function"
    },
    {
      "inputs": [
        {
          "internalType": "uint256",
          "name": "tokenId",
          "type": "uint256"
        }
      ],
      "name": "tokenURI",
      "outputs": [
        {
          "internalType": "string",
          "name": "",
          "type": "string"
        }
      ],
      "stateMutability": "view",
      "type": "function"
    },
    {
      "inputs": [
        {
          "internalType": "uint256",
          "name": "_tokenId",
          "type": "uint256"
        }
      ],
      "name": "tokenURL",
      "outputs": [
        {
          "internalType": "string",
          "name": "",
          "type": "string"
        }
      ],
      "stateMutability": "view",
      "type": "function"
    },
    {
      "inputs": [],
      "name": "totalSupply",
      "outputs": [
        {
          "internalType": "uint256",
          "name": "",
          "type": "uint256"
        }
      ],
      "stateMutability": "view",
      "type": "function"
    },
    {
      "inputs": [
        {
          "internalType": "address",
          "name": "from",
          "type": "address"
        },
        {
          "internalType": "address",
          "name": "to",
          "type": "address"
        },
        {
          "internalType": "uint256",
          "name": "tokenId",
          "type": "uint256"
        }
      ],
      "name": "transferFrom",
      "outputs": [],
      "stateMutability": "nonpayable",
      "type": "function"
    },
    {
      "inputs": [
        {
          "internalType": "address",
          "name": "newOwner",
          "type": "address"
        }
      ],
      "name": "transferOwnership",
      "outputs": [],
      "stateMutability": "nonpayable",
      "type": "function"
    },
    {
      "inputs": [
        {
          "internalType": "address",
          "name": "",
          "type": "address"
        }
      ],
      "name": "walletMints",
      "outputs": [
        {
          "internalType": "uint256",
          "name": "",
          "type": "uint256"
        }
      ],
      "stateMutability": "view",
      "type": "function"
    },
    {
      "inputs": [],
      "name": "withdraw",
      "outputs": [],
      "stateMutability": "nonpayable",
      "type": "function"
    },
    {
      "inputs": [],
      "name": "withdrawWallet",
      "outputs": [
        {
          "internalType": "address payable",
          "name": "",
          "type": "address"
        }
      ],
      "stateMutability": "view",
      "type": "function"
    }
  ],
  "bytecode": "0x60806040526040518060400160405280600881526020017f4b6f6e6477614e670000000000000000000000000000000000000000000000008152506040518060400160405280600281526020017f4b4e000000000000000000000000000000000000000000000000000000000000815250816000908051906020019062000088929190620001bf565b508060019080519060200190620000a1929190620001bf565b505050620000c4620000b8620000f160201b60201c565b620000f960201b60201c565b66470de4df82000060078190555060006008819055506103e86009819055506003600a81905550620002d4565b600033905090565b6000600660009054906101000a900473ffffffffffffffffffffffffffffffffffffffff16905081600660006101000a81548173ffffffffffffffffffffffffffffffffffffffff021916908373ffffffffffffffffffffffffffffffffffffffff1602179055508173ffffffffffffffffffffffffffffffffffffffff168173ffffffffffffffffffffffffffffffffffffffff167f8be0079c531659141344cd1fd0a4f28419497f9722a3daafe3b4186f6b6457e060405160405180910390a35050565b828054620001cd906200026f565b90600052602060002090601f016020900481019282620001f157600085556200023d565b82601f106200020c57805160ff19168380011785556200023d565b828001600101855582156200023d579182015b828111156200023c5782518255916020019190600101906200021f565b5b5090506200024c919062000250565b5090565b5b808211156200026b57600081600090555060010162000251565b5090565b600060028204905060018216806200028857607f821691505b602082108114156200029f576200029e620002a5565b5b50919050565b7f4e487b7100000000000000000000000000000000000000000000000000000000600052602260045260246000fd5b6138f880620002e46000396000f3fe6080604052600436106101b75760003560e01c806370a08231116100ec578063a22cb4651161008a578063d5abeb0111610064578063d5abeb01146105eb578063e985e9c514610616578063f0293fd314610653578063f2fde38b14610690576101b7565b8063a22cb4651461055c578063b88d4fde14610585578063c87b56dd146105ae576101b7565b806385d178f4116100c657806385d178f4146104bf5780638da5cb5b146104ea57806395d89b4114610515578063a0712d6814610540576101b7565b806370a0823114610442578063715018a61461047f5780637157de4b14610496576101b7565b80632373ac221161015957806342842e0e1161013357806342842e0e14610386578063453c2310146103af5780636352211e146103da5780636817c76c14610417576101b7565b80632373ac221461031d57806323b872dd146103465780633ccfd60b1461036f576101b7565b8063081812fc11610195578063081812fc1461024f578063095ea7b31461028c578063154e839e146102b557806318160ddd146102f2576101b7565b80630116bc2d146101bc57806301ffc9a7146101e757806306fdde0314610224575b600080fd5b3480156101c857600080fd5b506101d16106b9565b6040516101de9190612bee565b60405180910390f35b3480156101f357600080fd5b5061020e6004803603810190610209919061259e565b6106cc565b60405161021b9190612bee565b60405180910390f35b34801561023057600080fd5b506102396107ae565b6040516102469190612c09565b60405180910390f35b34801561025b57600080fd5b5061027660048036038101906102719190612635565b610840565b6040516102839190612b6c565b60405180910390f35b34801561029857600080fd5b506102b360048036038101906102ae9190612539565b6108c5565b005b3480156102c157600080fd5b506102dc60048036038101906102d79190612635565b6109dd565b6040516102e99190612c09565b60405180910390f35b3480156102fe57600080fd5b50610307610a59565b6040516103149190612eeb565b60405180910390f35b34801561032957600080fd5b50610344600480360381019061033f9190612575565b610a5f565b005b34801561035257600080fd5b5061036d60048036038101906103689190612433565b610af8565b005b34801561037b57600080fd5b50610384610b58565b005b34801561039257600080fd5b506103ad60048036038101906103a89190612433565b610ca5565b005b3480156103bb57600080fd5b506103c4610cc5565b6040516103d19190612eeb565b60405180910390f35b3480156103e657600080fd5b5061040160048036038101906103fc9190612635565b610ccb565b60405161040e9190612b6c565b60405180910390f35b34801561042357600080fd5b5061042c610d7d565b6040516104399190612eeb565b60405180910390f35b34801561044e57600080fd5b50610469600480360381019061046491906123ce565b610d83565b6040516104769190612eeb565b60405180910390f35b34801561048b57600080fd5b50610494610e3b565b005b3480156104a257600080fd5b506104bd60048036038101906104b891906125f0565b610ec3565b005b3480156104cb57600080fd5b506104d4610f55565b6040516104e19190612b87565b60405180910390f35b3480156104f657600080fd5b506104ff610f7b565b60405161050c9190612b6c565b60405180910390f35b34801561052157600080fd5b5061052a610fa5565b6040516105379190612c09565b60405180910390f35b61055a60048036038101906105559190612635565b611037565b005b34801561056857600080fd5b50610583600480360381019061057e91906124fd565b611201565b005b34801561059157600080fd5b506105ac60048036038101906105a79190612482565b611217565b005b3480156105ba57600080fd5b506105d560048036038101906105d09190612635565b611279565b6040516105e29190612c09565b60405180910390f35b3480156105f757600080fd5b50610600611320565b60405161060d9190612eeb565b60405180910390f35b34801561062257600080fd5b5061063d600480360381019061063891906123f7565b611326565b60405161064a9190612bee565b60405180910390f35b34801561065f57600080fd5b5061067a600480360381019061067591906123ce565b6113ba565b6040516106879190612eeb565b60405180910390f35b34801561069c57600080fd5b506106b760048036038101906106b291906123ce565b6113d2565b005b600b60009054906101000a900460ff1681565b60007f80ac58cd000000000000000000000000000000000000000000000000000000007bffffffffffffffffffffffffffffffffffffffffffffffffffffffff1916827bffffffffffffffffffffffffffffffffffffffffffffffffffffffff1916148061079757507f5b5e139f000000000000000000000000000000000000000000000000000000007bffffffffffffffffffffffffffffffffffffffffffffffffffffffff1916827bffffffffffffffffffffffffffffffffffffffffffffffffffffffff1916145b806107a757506107a6826114ca565b5b9050919050565b6060600080546107bd90613142565b80601f01602080910402602001604051908101604052809291908181526020018280546107e990613142565b80156108365780601f1061080b57610100808354040283529160200191610836565b820191906000526020600020905b81548152906001019060200180831161081957829003601f168201915b5050505050905090565b600061084b82611534565b61088a576040517f08c379a000000000000000000000000000000000000000000000000000000000815260040161088190612deb565b60405180910390fd5b6004600083815260200190815260200160002060009054906101000a900473ffffffffffffffffffffffffffffffffffffffff169050919050565b60006108d082610ccb565b90508073ffffffffffffffffffffffffffffffffffffffff168373ffffffffffffffffffffffffffffffffffffffff161415610941576040517f08c379a000000000000000000000000000000000000000000000000000000000815260040161093890612e6b565b60405180910390fd5b8073ffffffffffffffffffffffffffffffffffffffff166109606115a0565b73ffffffffffffffffffffffffffffffffffffffff16148061098f575061098e816109896115a0565b611326565b5b6109ce576040517f08c379a00000000000000000000000000000000000000000000000000000000081526004016109c590612d6b565b60405180910390fd5b6109d883836115a8565b505050565b60606109e882611534565b610a27576040517f08c379a0000000000000000000000000000000000000000000000000000000008152600401610a1e90612eab565b60405180910390fd5b600c610a3283611661565b604051602001610a43929190612b28565b6040516020818303038152906040529050919050565b60085481565b610a676115a0565b73ffffffffffffffffffffffffffffffffffffffff16610a85610f7b565b73ffffffffffffffffffffffffffffffffffffffff1614610adb576040517f08c379a0000000000000000000000000000000000000000000000000000000008152600401610ad290612e0b565b60405180910390fd5b80600b60006101000a81548160ff02191690831515021790555050565b610b09610b036115a0565b8261180e565b610b48576040517f08c379a0000000000000000000000000000000000000000000000000000000008152600401610b3f90612e8b565b60405180910390fd5b610b538383836118ec565b505050565b610b606115a0565b73ffffffffffffffffffffffffffffffffffffffff16610b7e610f7b565b73ffffffffffffffffffffffffffffffffffffffff1614610bd4576040517f08c379a0000000000000000000000000000000000000000000000000000000008152600401610bcb90612e0b565b60405180910390fd5b6000600d60009054906101000a900473ffffffffffffffffffffffffffffffffffffffff1673ffffffffffffffffffffffffffffffffffffffff1647604051610c1c90612b57565b60006040518083038185875af1925050503d8060008114610c59576040519150601f19603f3d011682016040523d82523d6000602084013e610c5e565b606091505b5050905080610ca2576040517f08c379a0000000000000000000000000000000000000000000000000000000008152600401610c9990612ecb565b60405180910390fd5b50565b610cc083838360405180602001604052806000815250611217565b505050565b600a5481565b6000806002600084815260200190815260200160002060009054906101000a900473ffffffffffffffffffffffffffffffffffffffff169050600073ffffffffffffffffffffffffffffffffffffffff168173ffffffffffffffffffffffffffffffffffffffff161415610d74576040517f08c379a0000000000000000000000000000000000000000000000000000000008152600401610d6b90612dab565b60405180910390fd5b80915050919050565b60075481565b60008073ffffffffffffffffffffffffffffffffffffffff168273ffffffffffffffffffffffffffffffffffffffff161415610df4576040517f08c379a0000000000000000000000000000000000000000000000000000000008152600401610deb90612d8b565b60405180910390fd5b600360008373ffffffffffffffffffffffffffffffffffffffff1673ffffffffffffffffffffffffffffffffffffffff168152602001908152602001600020549050919050565b610e436115a0565b73ffffffffffffffffffffffffffffffffffffffff16610e61610f7b565b73ffffffffffffffffffffffffffffffffffffffff1614610eb7576040517f08c379a0000000000000000000000000000000000000000000000000000000008152600401610eae90612e0b565b60405180910390fd5b610ec16000611b53565b565b610ecb6115a0565b73ffffffffffffffffffffffffffffffffffffffff16610ee9610f7b565b73ffffffffffffffffffffffffffffffffffffffff1614610f3f576040517f08c379a0000000000000000000000000000000000000000000000000000000008152600401610f3690612e0b565b60405180910390fd5b8181600c9190610f50929190612210565b505050565b600d60009054906101000a900473ffffffffffffffffffffffffffffffffffffffff1681565b6000600660009054906101000a900473ffffffffffffffffffffffffffffffffffffffff16905090565b606060018054610fb490613142565b80601f0160208091040260200160405190810160405280929190818152602001828054610fe090613142565b801561102d5780601f106110025761010080835404028352916020019161102d565b820191906000526020600020905b81548152906001019060200180831161101057829003601f168201915b5050505050905090565b600b60009054906101000a900460ff16611086576040517f08c379a000000000000000000000000000000000000000000000000000000000815260040161107d90612c6b565b60405180910390fd5b8034146110c8576040517f08c379a00000000000000000000000000000000000000000000000000000000081526004016110bf90612c2b565b60405180910390fd5b600954816008546110d99190612fbf565b111561111a576040517f08c379a000000000000000000000000000000000000000000000000000000000815260040161111190612d4b565b60405180910390fd5b600a5481600e60003373ffffffffffffffffffffffffffffffffffffffff1673ffffffffffffffffffffffffffffffffffffffff168152602001908152602001600020546111689190612fbf565b11156111a9576040517f08c379a00000000000000000000000000000000000000000000000000000000081526004016111a090612e4b565b60405180910390fd5b60005b818110156111fd57600060016008546111c59190612fbf565b9050600860008154809291906111da906131a5565b91905055506111e93382611c19565b5080806111f5906131a5565b9150506111ac565b5050565b61121361120c6115a0565b8383611c37565b5050565b6112286112226115a0565b8361180e565b611267576040517f08c379a000000000000000000000000000000000000000000000000000000000815260040161125e90612e8b565b60405180910390fd5b61127384848484611da4565b50505050565b606061128482611534565b6112c3576040517f08c379a00000000000000000000000000000000000000000000000000000000081526004016112ba90612e2b565b60405180910390fd5b60006112cd611e00565b905060008151116112ed5760405180602001604052806000815250611318565b806112f784611661565b604051602001611308929190612b04565b6040516020818303038152906040525b915050919050565b60095481565b6000600560008473ffffffffffffffffffffffffffffffffffffffff1673ffffffffffffffffffffffffffffffffffffffff16815260200190815260200160002060008373ffffffffffffffffffffffffffffffffffffffff1673ffffffffffffffffffffffffffffffffffffffff16815260200190815260200160002060009054906101000a900460ff16905092915050565b600e6020528060005260406000206000915090505481565b6113da6115a0565b73ffffffffffffffffffffffffffffffffffffffff166113f8610f7b565b73ffffffffffffffffffffffffffffffffffffffff161461144e576040517f08c379a000000000000000000000000000000000000000000000000000000000815260040161144590612e0b565b60405180910390fd5b600073ffffffffffffffffffffffffffffffffffffffff168173ffffffffffffffffffffffffffffffffffffffff1614156114be576040517f08c379a00000000000000000000000000000000000000000000000000000000081526004016114b590612c8b565b60405180910390fd5b6114c781611b53565b50565b60007f01ffc9a7000000000000000000000000000000000000000000000000000000007bffffffffffffffffffffffffffffffffffffffffffffffffffffffff1916827bffffffffffffffffffffffffffffffffffffffffffffffffffffffff1916149050919050565b60008073ffffffffffffffffffffffffffffffffffffffff166002600084815260200190815260200160002060009054906101000a900473ffffffffffffffffffffffffffffffffffffffff1673ffffffffffffffffffffffffffffffffffffffff1614159050919050565b600033905090565b816004600083815260200190815260200160002060006101000a81548173ffffffffffffffffffffffffffffffffffffffff021916908373ffffffffffffffffffffffffffffffffffffffff160217905550808273ffffffffffffffffffffffffffffffffffffffff1661161b83610ccb565b73ffffffffffffffffffffffffffffffffffffffff167f8c5be1e5ebec7d5bd14f71427d1e84f3dd0314c0f7b2291e5b200ac8c7c3b92560405160405180910390a45050565b606060008214156116a9576040518060400160405280600181526020017f30000000000000000000000000000000000000000000000000000000000000008152509050611809565b600082905060005b600082146116db5780806116c4906131a5565b915050600a826116d49190613015565b91506116b1565b60008167ffffffffffffffff81111561171d577f4e487b7100000000000000000000000000000000000000000000000000000000600052604160045260246000fd5b6040519080825280601f01601f19166020018201604052801561174f5781602001600182028036833780820191505090505b5090505b60008514611802576001826117689190613046565b9150600a8561177791906131ee565b60306117839190612fbf565b60f81b8183815181106117bf577f4e487b7100000000000000000000000000000000000000000000000000000000600052603260045260246000fd5b60200101907effffffffffffffffffffffffffffffffffffffffffffffffffffffffffffff1916908160001a905350600a856117fb9190613015565b9450611753565b8093505050505b919050565b600061181982611534565b611858576040517f08c379a000000000000000000000000000000000000000000000000000000000815260040161184f90612d2b565b60405180910390fd5b600061186383610ccb565b90508073ffffffffffffffffffffffffffffffffffffffff168473ffffffffffffffffffffffffffffffffffffffff1614806118d257508373ffffffffffffffffffffffffffffffffffffffff166118ba84610840565b73ffffffffffffffffffffffffffffffffffffffff16145b806118e357506118e28185611326565b5b91505092915050565b8273ffffffffffffffffffffffffffffffffffffffff1661190c82610ccb565b73ffffffffffffffffffffffffffffffffffffffff1614611962576040517f08c379a000000000000000000000000000000000000000000000000000000000815260040161195990612cab565b60405180910390fd5b600073ffffffffffffffffffffffffffffffffffffffff168273ffffffffffffffffffffffffffffffffffffffff1614156119d2576040517f08c379a00000000000000000000000000000000000000000000000000000000081526004016119c990612ceb565b60405180910390fd5b6119dd838383611e17565b6119e86000826115a8565b6001600360008573ffffffffffffffffffffffffffffffffffffffff1673ffffffffffffffffffffffffffffffffffffffff1681526020019081526020016000206000828254611a389190613046565b925050819055506001600360008473ffffffffffffffffffffffffffffffffffffffff1673ffffffffffffffffffffffffffffffffffffffff1681526020019081526020016000206000828254611a8f9190612fbf565b92505081905550816002600083815260200190815260200160002060006101000a81548173ffffffffffffffffffffffffffffffffffffffff021916908373ffffffffffffffffffffffffffffffffffffffff160217905550808273ffffffffffffffffffffffffffffffffffffffff168473ffffffffffffffffffffffffffffffffffffffff167fddf252ad1be2c89b69c2b068fc378daa952ba7f163c4a11628f55a4df523b3ef60405160405180910390a4611b4e838383611e1c565b505050565b6000600660009054906101000a900473ffffffffffffffffffffffffffffffffffffffff16905081600660006101000a81548173ffffffffffffffffffffffffffffffffffffffff021916908373ffffffffffffffffffffffffffffffffffffffff1602179055508173ffffffffffffffffffffffffffffffffffffffff168173ffffffffffffffffffffffffffffffffffffffff167f8be0079c531659141344cd1fd0a4f28419497f9722a3daafe3b4186f6b6457e060405160405180910390a35050565b611c33828260405180602001604052806000815250611e21565b5050565b8173ffffffffffffffffffffffffffffffffffffffff168373ffffffffffffffffffffffffffffffffffffffff161415611ca6576040517f08c379a0000000000000000000000000000000000000000000000000000000008152600401611c9d90612d0b565b60405180910390fd5b80600560008573ffffffffffffffffffffffffffffffffffffffff1673ffffffffffffffffffffffffffffffffffffffff16815260200190815260200160002060008473ffffffffffffffffffffffffffffffffffffffff1673ffffffffffffffffffffffffffffffffffffffff16815260200190815260200160002060006101000a81548160ff0219169083151502179055508173ffffffffffffffffffffffffffffffffffffffff168373ffffffffffffffffffffffffffffffffffffffff167f17307eab39ab6107e8899845ad3d59bd9653f200f220920489ca2b5937696c3183604051611d979190612bee565b60405180910390a3505050565b611daf8484846118ec565b611dbb84848484611e7c565b611dfa576040517f08c379a0000000000000000000000000000000000000000000000000000000008152600401611df190612c4b565b60405180910390fd5b50505050565b606060405180602001604052806000815250905090565b505050565b505050565b611e2b8383612013565b611e386000848484611e7c565b611e77576040517f08c379a0000000000000000000000000000000000000000000000000000000008152600401611e6e90612c4b565b60405180910390fd5b505050565b6000611e9d8473ffffffffffffffffffffffffffffffffffffffff166121ed565b15612006578373ffffffffffffffffffffffffffffffffffffffff1663150b7a02611ec66115a0565b8786866040518563ffffffff1660e01b8152600401611ee89493929190612ba2565b602060405180830381600087803b158015611f0257600080fd5b505af1925050508015611f3357506040513d601f19601f82011682018060405250810190611f3091906125c7565b60015b611fb6573d8060008114611f63576040519150601f19603f3d011682016040523d82523d6000602084013e611f68565b606091505b50600081511415611fae576040517f08c379a0000000000000000000000000000000000000000000000000000000008152600401611fa590612c4b565b60405180910390fd5b805181602001fd5b63150b7a0260e01b7bffffffffffffffffffffffffffffffffffffffffffffffffffffffff1916817bffffffffffffffffffffffffffffffffffffffffffffffffffffffff19161491505061200b565b600190505b949350505050565b600073ffffffffffffffffffffffffffffffffffffffff168273ffffffffffffffffffffffffffffffffffffffff161415612083576040517f08c379a000000000000000000000000000000000000000000000000000000000815260040161207a90612dcb565b60405180910390fd5b61208c81611534565b156120cc576040517f08c379a00000000000000000000000000000000000000000000000000000000081526004016120c390612ccb565b60405180910390fd5b6120d860008383611e17565b6001600360008473ffffffffffffffffffffffffffffffffffffffff1673ffffffffffffffffffffffffffffffffffffffff16815260200190815260200160002060008282546121289190612fbf565b92505081905550816002600083815260200190815260200160002060006101000a81548173ffffffffffffffffffffffffffffffffffffffff021916908373ffffffffffffffffffffffffffffffffffffffff160217905550808273ffffffffffffffffffffffffffffffffffffffff16600073ffffffffffffffffffffffffffffffffffffffff167fddf252ad1be2c89b69c2b068fc378daa952ba7f163c4a11628f55a4df523b3ef60405160405180910390a46121e960008383611e1c565b5050565b6000808273ffffffffffffffffffffffffffffffffffffffff163b119050919050565b82805461221c90613142565b90600052602060002090601f01602090048101928261223e5760008555612285565b82601f1061225757803560ff1916838001178555612285565b82800160010185558215612285579182015b82811115612284578235825591602001919060010190612269565b5b5090506122929190612296565b5090565b5b808211156122af576000816000905550600101612297565b5090565b60006122c66122c184612f2b565b612f06565b9050828152602081018484840111156122de57600080fd5b6122e9848285613100565b509392505050565b60008135905061230081613866565b92915050565b6000813590506123158161387d565b92915050565b60008135905061232a81613894565b92915050565b60008151905061233f81613894565b92915050565b600082601f83011261235657600080fd5b81356123668482602086016122b3565b91505092915050565b60008083601f84011261238157600080fd5b8235905067ffffffffffffffff81111561239a57600080fd5b6020830191508360018202830111156123b257600080fd5b9250929050565b6000813590506123c8816138ab565b92915050565b6000602082840312156123e057600080fd5b60006123ee848285016122f1565b91505092915050565b6000806040838503121561240a57600080fd5b6000612418858286016122f1565b9250506020612429858286016122f1565b9150509250929050565b60008060006060848603121561244857600080fd5b6000612456868287016122f1565b9350506020612467868287016122f1565b9250506040612478868287016123b9565b9150509250925092565b6000806000806080858703121561249857600080fd5b60006124a6878288016122f1565b94505060206124b7878288016122f1565b93505060406124c8878288016123b9565b925050606085013567ffffffffffffffff8111156124e557600080fd5b6124f187828801612345565b91505092959194509250565b6000806040838503121561251057600080fd5b600061251e858286016122f1565b925050602061252f85828601612306565b9150509250929050565b6000806040838503121561254c57600080fd5b600061255a858286016122f1565b925050602061256b858286016123b9565b9150509250929050565b60006020828403121561258757600080fd5b600061259584828501612306565b91505092915050565b6000602082840312156125b057600080fd5b60006125be8482850161231b565b91505092915050565b6000602082840312156125d957600080fd5b60006125e784828501612330565b91505092915050565b6000806020838503121561260357600080fd5b600083013567ffffffffffffffff81111561261d57600080fd5b6126298582860161236f565b92509250509250929050565b60006020828403121561264757600080fd5b6000612655848285016123b9565b91505092915050565b6126678161308c565b82525050565b6126768161307a565b82525050565b6126858161309e565b82525050565b600061269682612f71565b6126a08185612f87565b93506126b081856020860161310f565b6126b9816132db565b840191505092915050565b60006126cf82612f7c565b6126d98185612fa3565b93506126e981856020860161310f565b6126f2816132db565b840191505092915050565b600061270882612f7c565b6127128185612fb4565b935061272281856020860161310f565b80840191505092915050565b6000815461273b81613142565b6127458186612fb4565b945060018216600081146127605760018114612771576127a4565b60ff198316865281860193506127a4565b61277a85612f5c565b60005b8381101561279c5781548189015260018201915060208101905061277d565b838801955050505b50505092915050565b60006127ba601083612fa3565b91506127c5826132ec565b602082019050919050565b60006127dd603283612fa3565b91506127e882613315565b604082019050919050565b6000612800601383612fa3565b915061280b82613364565b602082019050919050565b6000612823602683612fa3565b915061282e8261338d565b604082019050919050565b6000612846602583612fa3565b9150612851826133dc565b604082019050919050565b6000612869601c83612fa3565b91506128748261342b565b602082019050919050565b600061288c602483612fa3565b915061289782613454565b604082019050919050565b60006128af601983612fa3565b91506128ba826134a3565b602082019050919050565b60006128d2602c83612fa3565b91506128dd826134cc565b604082019050919050565b60006128f5600883612fa3565b91506129008261351b565b602082019050919050565b6000612918603883612fa3565b915061292382613544565b604082019050919050565b600061293b602a83612fa3565b915061294682613593565b604082019050919050565b600061295e602983612fa3565b9150612969826135e2565b604082019050919050565b6000612981602083612fa3565b915061298c82613631565b602082019050919050565b60006129a4602c83612fa3565b91506129af8261365a565b604082019050919050565b60006129c7600583612fb4565b91506129d2826136a9565b600582019050919050565b60006129ea602083612fa3565b91506129f5826136d2565b602082019050919050565b6000612a0d602f83612fa3565b9150612a18826136fb565b604082019050919050565b6000612a30601683612fa3565b9150612a3b8261374a565b602082019050919050565b6000612a53602183612fa3565b9150612a5e82613773565b604082019050919050565b6000612a76600083612f98565b9150612a81826137c2565b600082019050919050565b6000612a99603183612fa3565b9150612aa4826137c5565b604082019050919050565b6000612abc601483612fa3565b9150612ac782613814565b602082019050919050565b6000612adf600f83612fa3565b9150612aea8261383d565b602082019050919050565b612afe816130f6565b82525050565b6000612b1082856126fd565b9150612b1c82846126fd565b91508190509392505050565b6000612b34828561272e565b9150612b4082846126fd565b9150612b4b826129ba565b91508190509392505050565b6000612b6282612a69565b9150819050919050565b6000602082019050612b81600083018461266d565b92915050565b6000602082019050612b9c600083018461265e565b92915050565b6000608082019050612bb7600083018761266d565b612bc4602083018661266d565b612bd16040830185612af5565b8181036060830152612be3818461268b565b905095945050505050565b6000602082019050612c03600083018461267c565b92915050565b60006020820190508181036000830152612c2381846126c4565b905092915050565b60006020820190508181036000830152612c44816127ad565b9050919050565b60006020820190508181036000830152612c64816127d0565b9050919050565b60006020820190508181036000830152612c84816127f3565b9050919050565b60006020820190508181036000830152612ca481612816565b9050919050565b60006020820190508181036000830152612cc481612839565b9050919050565b60006020820190508181036000830152612ce48161285c565b9050919050565b60006020820190508181036000830152612d048161287f565b9050919050565b60006020820190508181036000830152612d24816128a2565b9050919050565b60006020820190508181036000830152612d44816128c5565b9050919050565b60006020820190508181036000830152612d64816128e8565b9050919050565b60006020820190508181036000830152612d848161290b565b9050919050565b60006020820190508181036000830152612da48161292e565b9050919050565b60006020820190508181036000830152612dc481612951565b9050919050565b60006020820190508181036000830152612de481612974565b9050919050565b60006020820190508181036000830152612e0481612997565b9050919050565b60006020820190508181036000830152612e24816129dd565b9050919050565b60006020820190508181036000830152612e4481612a00565b9050919050565b60006020820190508181036000830152612e6481612a23565b9050919050565b60006020820190508181036000830152612e8481612a46565b9050919050565b60006020820190508181036000830152612ea481612a8c565b9050919050565b60006020820190508181036000830152612ec481612aaf565b9050919050565b60006020820190508181036000830152612ee481612ad2565b9050919050565b6000602082019050612f006000830184612af5565b92915050565b6000612f10612f21565b9050612f1c8282613174565b919050565b6000604051905090565b600067ffffffffffffffff821115612f4657612f456132ac565b5b612f4f826132db565b9050602081019050919050565b60008190508160005260206000209050919050565b600081519050919050565b600081519050919050565b600082825260208201905092915050565b600081905092915050565b600082825260208201905092915050565b600081905092915050565b6000612fca826130f6565b9150612fd5836130f6565b9250827fffffffffffffffffffffffffffffffffffffffffffffffffffffffffffffffff0382111561300a5761300961321f565b5b828201905092915050565b6000613020826130f6565b915061302b836130f6565b92508261303b5761303a61324e565b5b828204905092915050565b6000613051826130f6565b915061305c836130f6565b92508282101561306f5761306e61321f565b5b828203905092915050565b6000613085826130d6565b9050919050565b6000613097826130d6565b9050919050565b60008115159050919050565b60007fffffffff0000000000000000000000000000000000000000000000000000000082169050919050565b600073ffffffffffffffffffffffffffffffffffffffff82169050919050565b6000819050919050565b82818337600083830152505050565b60005b8381101561312d578082015181840152602081019050613112565b8381111561313c576000848401525b50505050565b6000600282049050600182168061315a57607f821691505b6020821081141561316e5761316d61327d565b5b50919050565b61317d826132db565b810181811067ffffffffffffffff8211171561319c5761319b6132ac565b5b80604052505050565b60006131b0826130f6565b91507fffffffffffffffffffffffffffffffffffffffffffffffffffffffffffffffff8214156131e3576131e261321f565b5b600182019050919050565b60006131f9826130f6565b9150613204836130f6565b9250826132145761321361324e565b5b828206905092915050565b7f4e487b7100000000000000000000000000000000000000000000000000000000600052601160045260246000fd5b7f4e487b7100000000000000000000000000000000000000000000000000000000600052601260045260246000fd5b7f4e487b7100000000000000000000000000000000000000000000000000000000600052602260045260246000fd5b7f4e487b7100000000000000000000000000000000000000000000000000000000600052604160045260246000fd5b6000601f19601f8301169050919050565b7f77726f6e67206d696e742076616c756500000000000000000000000000000000600082015250565b7f4552433732313a207472616e7366657220746f206e6f6e20455243373231526560008201527f63656976657220696d706c656d656e7465720000000000000000000000000000602082015250565b7f6d696e74696e67206e6f7420656e61626c656400000000000000000000000000600082015250565b7f4f776e61626c653a206e6577206f776e657220697320746865207a65726f206160008201527f6464726573730000000000000000000000000000000000000000000000000000602082015250565b7f4552433732313a207472616e736665722066726f6d20696e636f72726563742060008201527f6f776e6572000000000000000000000000000000000000000000000000000000602082015250565b7f4552433732313a20746f6b656e20616c7265616479206d696e74656400000000600082015250565b7f4552433732313a207472616e7366657220746f20746865207a65726f2061646460008201527f7265737300000000000000000000000000000000000000000000000000000000602082015250565b7f4552433732313a20617070726f766520746f2063616c6c657200000000000000600082015250565b7f4552433732313a206f70657261746f7220717565727920666f72206e6f6e657860008201527f697374656e7420746f6b656e0000000000000000000000000000000000000000602082015250565b7f736f6c64206f7574000000000000000000000000000000000000000000000000600082015250565b7f4552433732313a20617070726f76652063616c6c6572206973206e6f74206f7760008201527f6e6572206e6f7220617070726f76656420666f7220616c6c0000000000000000602082015250565b7f4552433732313a2062616c616e636520717565727920666f7220746865207a6560008201527f726f206164647265737300000000000000000000000000000000000000000000602082015250565b7f4552433732313a206f776e657220717565727920666f72206e6f6e657869737460008201527f656e7420746f6b656e0000000000000000000000000000000000000000000000602082015250565b7f4552433732313a206d696e7420746f20746865207a65726f2061646472657373600082015250565b7f4552433732313a20617070726f76656420717565727920666f72206e6f6e657860008201527f697374656e7420746f6b656e0000000000000000000000000000000000000000602082015250565b7f2e6a736f6e000000000000000000000000000000000000000000000000000000600082015250565b7f4f776e61626c653a2063616c6c6572206973206e6f7420746865206f776e6572600082015250565b7f4552433732314d657461646174613a2055524920717565727920666f72206e6f60008201527f6e6578697374656e7420746f6b656e0000000000000000000000000000000000602082015250565b7f6578636564656564206d617820696e2077616c6c657400000000000000000000600082015250565b7f4552433732313a20617070726f76616c20746f2063757272656e74206f776e6560008201527f7200000000000000000000000000000000000000000000000000000000000000602082015250565b50565b7f4552433732313a207472616e736665722063616c6c6572206973206e6f74206f60008201527f776e6572206e6f7220617070726f766564000000000000000000000000000000602082015250565b7f746f6b656e20646f6573206e6f74206578697374000000000000000000000000600082015250565b7f7769746864726177206661696c65640000000000000000000000000000000000600082015250565b61386f8161307a565b811461387a57600080fd5b50565b6138868161309e565b811461389157600080fd5b50565b61389d816130aa565b81146138a857600080fd5b50565b6138b4816130f6565b81146138bf57600080fd5b5056fea264697066735822122064c4eb0892d2fa0d203da673835fcba2ad42379dfb4d19b9fd51a033c17001d064736f6c63430008040033",
  "linkReferences": {},
  "deployedLinkReferences": {}
}